:100000000203FF0206B07B3102036BE4FB02036BC9
:1000100002021702048B12088D12096AE4FF12090A
:10002000287F011209287D077F3312000B7D077F8F
:10003000331209607D027F331200067D037F331285
:100040000006E4FD7F301200067D017F30120006BD
:100050007D027F301200067D037F301200067D0492
:100060007F30120006E4FD7F321200067D017F32F0
:100070001200067D027F321200067D037F321200DD
:10008000067D047F321200067D057F321200067D58
:10009000067F321200067D077F321200067D047F44
:1000A000311205D1AD0F7F31120965E51C451B707A
:1000B000030201551206F1E50F25E0241FF8E6FCC6
:1000C00008E6B50719EEB50415120948E52B25E039
:1000D000242EF8E6FC08E66F7002EE6C6015750CD5
:1000E00000750D011206F1E50F25E0241F120942EB
:1000F000120865C3E50F940474809480504D7B0012
:100100007A00791FE50FFD7C001204F98E1D8F1E09
:10011000E51E64947004E51D64016024E50F651E0E
:100120007002E51D601AE4F50CF50D12072B7F1423
:100130007E001208D2050FAD1E7F31120965800BBB
:10014000750C00750D01E4F51BF51CE50F640470DA
:1001500004F51BF51CE51C451B60030200A4AF0F52
:10016000FE1206F5E50F25E02411F8E6FC08E6B5D9
:100170000719EEB50415120948E52B25E0242EF8E1
:10018000E6FC08E66F7002EE6C601C750C00750DE5
:10019000017F147E001208D21206F1E50F25E0243B
:1001A00011120942120865D3E50F940074809480FF
:1001B000404E7B007A007911E50FFD7C0012056747
:1001C0008E1D8F1EE51E64947004E51D640160247D
:1001D000E50F651E7002E51D601AE4F50CF50D12C1
:1001E00007637F147E001208D2150FAD0F7F311206
:1001F0000965800C750C00750D01751B00751C01DF
:10020000D3E50F94007480948040030200A4751B12
:1002100000751C010200A4E4FEEF24CF60391460D5
:100220005F1470030202A9240360030202D07E005F
:100230007401A805088005C333CE33CED8F9FFACCE
:1002400080ECFBE4FEEF5BA805088006CEA2E71376
:10025000CE13D8F8FE80797E007401A805088005C9
:10026000C333CE33CED8F9FFAC90ECFBE4FEEF5BAA
:10027000A805088006CEA2E713CE13D8F8FE80505A
:100280007E007401A805088005C333CE33CED8F9AB
:10029000FFACA0ECFBE4FEEF5BA805088006CEA255
:1002A000E713CE13D8F8FE80277E007401A8050856
:1002B0008005C333CE33CED8F9FFACB0ECFBE4FEFF
:1002C000EF5BA805088006CEA2E713CE13D8F8FE90
:1002D000AF0622EF24CF602E14604C14606A240312
:1002E000600302036AEB6401700DA8050408800234
:1002F000C333D8FC428022A8057401088002C333AE
:10030000D8FCF4528022EB6401700DA8050408802B
:1003100002C333D8FC429022A8057401088002C3AE
:1003200033D8FCF4529022EB6401700DA805040848
:100330008002C333D8FC42A022A8057401088002C1
:10034000C333D8FCF452A022EB6401700DA805045D
:10035000088002C333D8FC42B022AF05A80774015D
:10036000088002C333D8FCF452B022EF24CF602DB2
:1003700014604A146067240360030203FEBB300F5D
:10038000A8057401088002C333D8FCF4528022A867
:10039000057401088002C333D8FC428022BB300FB1
:1003A000A8057401088002C333D8FCF4529022A837
:1003B000057401088002C333D8FC429022BB300F81
:1003C000A8057401088002C333D8FCF452A022A807
:1003D000057401088002C333D8FC42A022BB300F51
:1003E000A8057401088002C333D8FCF452B022AFD0
:1003F00005A8077401088002C333D8FC42B02278F4
:100400007FE4F6D8FD75814D020446020016E493A0
:10041000A3F8E493A34003F68001F208DFF48029F7
:10042000E493A3F85407240CC8C333C4540F4420E6
:10043000C8834004F456800146F6DFE4800B0102D5
:1004400004081020408090066EE47E019360BCA3F7
:10045000FF543F30E509541FFEE493A360010ECF23
:1004600054C025E060A840B8E493A3FAE493A3F84D
:10047000E493A3C8C582C8CAC583CAF0A3C8C5820D
:10048000C8CAC583CADFE9DEE780BEC0E0C0F0C0ED
:1004900083C082C0D075D000C000C001C002C003BC
:1004A000C004C005C006C007C3E51094047480945E
:1004B00080500405108027750E00C3E50E94647407
:1004C00080948050127D077F3312096E7F0A7E0070
:1004D0001208D2050E80E37D077F33120960D00732
:1004E000D006D005D004D003D002D001D000D0D0A7
:1004F000D082D083D0F0D0E0328B498A4A894B8CAD
:100500002A8D2BC3E52B9405E52A648094805052F4
:10051000AF2BAE2A12094CE52B25E0242EF8E6FC81
:1005200008E66F7002EE6C60028028AF2BAE2A12D4
:1005300006F5AC06AD07E52B25E0FFE52A33AB4910
:10054000AA4AA94B8F82F58312079B6D7003EC6555
:10055000F06005AE2AAF2B22052BE52B70A5052AEE
:1005600080A17E017F94228B498A4A894B8C2A8DF7
:100570002BC3E52A648094804052AF2BAE2A120927
:100580004CE52B25E0242EF8E6FC08E66F7002EE21
:100590006C60028028AF2BAE2A1206F5AC06AD07C0
:1005A000E52B25E0FFE52A33AB49AA4AA94B8F8208
:1005B000F58312079B6D7003EC65F06005AE2AAF02
:1005C0002B22E52B152B70A9152A80A57E017F947F
:1005D000228F49E4F54AF54BED24CF6025047044A1
:1005E000E4F54AF54BAD4BE4FBAF4912036B054B09
:1005F000E54B7002054AD39403E54A648094804039
:10060000E422754A00754B04AD4BE4FBAF4912037D
:100610006B054BE54B7002054AD39407E54A6480AD
:10062000948040E422EF24CF601814602314602EDD
:1006300024037039A8057401088002C333D8FC6212
:100640008022A8057401088002C333D8FC6290227E
:10065000A8057401088002C333D8FC62A022AF054C
:10066000A8077401088002C333D8FC62B0220110CD
:1006700000012901010F000A1F0001000100010013
:100680000100010A11000100010001000100010A3E
:100690002E00010001000100010001021B00010207
:1006A0000C00010A3F0001080940414849E8E900FF
:1006B000C0E0C0F0C083C082C0D075D000C000C010
:1006C00001C002C003C004C005C006C007E50D4557
:1006D0000C6003120871D007D006D005D004D003F7
:1006E000D002D001D000D0D0D082D083D0F0D0E0E2
:1006F00032AF0F7E008E4C8F4DE51C451B700AE516
:100700004D454C6004EF148012E51C451B6017E555
:100710004D6404454C600FE54D2404FD7F3212000A
:1007200010753A008F3BAE3AAF3B227D037F31120A
:10073000083A7F647E001208D27D067F3112083AA3
:100740007F647E001208D27D0C7F3112083A7F64EC
:100750007E001208D27D097F3112083A7F647E0044
:100760000208D27D0C7F3112083A7F647E001208A5
:10077000D27D067F3112083A7F647E001208D27D56
:10078000037F3112083A7F647E001208D27D097F10
:100790003112083A7F647E000208D2BB0110E58264
:1007A00029F582E5833AF583E0F5F0A3E0225009CC
:1007B000E92582F886F008E622BBFE0AE92582F8E0
:1007C000E2F5F008E222E5832AF583E993F5F0A348
:1007D000E99322EF24CF601414601B1460222403D9
:1007E0007027ED7003F580227580FF22ED7003F510
:1007F00090227590FF22ED7003F5A02275A0FF22D4
:10080000ED7003F5B02275B0FF22EDC454F0FDEF9A
:1008100024CF60111460151460192403701B5380D9
:100820000FED42802253900FED42902253A00FED26
:1008300042A02253B00FED42B022EF24CF6011143A
:1008400060151460192403701B5380F0ED42802260
:100850005390F0ED42902253A0F0ED42A02253B00D
:10086000F0ED42B022E52B25E0242EF8A60608A6DE
:10087000077D077F3312095B7529017FE87E03122C
:1008800008D27D077F33120960E4F52922E4FBFDDD
:100890007F3112036BE4FB7D017F3112036BE4FBBC
:1008A0007D027F3112036BE4FB7D037F3102036B1A
:1008B000E4FEEF24CF600E14600F14601024037068
:1008C0000EAE80800AAE908006AEA08002AEB0AFC1
:1008D0000622E4FDFCC3ED9FEC9E5015E4FBFA0BF1
:1008E000BB00010AEB64714A70F50DBD00010C807C
:1008F000E422EF24CF600D14600D14600D2403700A
:100900000B8D80228D90228DA0228DB022AE05AC61
:1009100007EB24CF600A04700EAF04AD0602083A5C
:10092000AF04AD0612080A22EFFD7C00700743A851
:100930000143880122ED64014C700643A8044388FA
:100940000422F8A60608A607AF0F7E00AD077F3089
:100950001200107538008F39AE38227B010202D3A5
:10096000E4FB0202D37B3102090D43A88022020678
:040970002502021743
:00000001FF
