:100000000203EC0206497B31020358E4FB02035869
:10001000020204020478120826120903E4FF1208FF
:10002000C67F011208C67D077F3312000B7D077F54
:10003000331208FE7D027F331200067D037F3312E8
:100040000006E4FD7F301200067D017F30120006BD
:100050007D027F301200067D037F301200067D0492
:100060007F30120006E4FD7F321200067D017F32F0
:100070001200067D027F321200067D037F321200DD
:10008000067D047F321200067D057F321200067D58
:10009000067F321200067D077F321200067D047F44
:1000A0003112088BAD0F7F3112090DE51C451B7015
:1000B0000302014F12068AE50F25E0241FF8E6FC33
:1000C00008E6B50719EEB504151208E6E52B25E09C
:1000D000242EF8E6FC08E66F7002EE6C601F750CCB
:1000E00000750D011206FC7F147E0012086B1206CB
:1000F0008AE50F25E0241F1208E01207FEC3E50F72
:10010000940474809480503D7B007A00791FE50F41
:10011000FD7C001204E68E1D8F1EE51E64947004A3
:10012000E51D6401601AE4F50CF50D1206C47F1498
:100130007E0012086B050FAD1E7F3112090D800580
:10014000E4F51BF51CE50F64047004F51BF51CE5D4
:100150001C451B60030200A4AF0FFE12068EE50FC4
:1001600025E02411F8E6FC08E6B50719EEB50415FC
:100170001208E6E52B25E0242EF8E6FC08E66F7071
:1001800002EE6C601F750C00750D011206FC7F14E9
:100190007E0012086B12068AE50F25E02411120872
:1001A000E01207FED3E50F940074809480403E7BFC
:1001B000007A007911E50FFD7C001205548E1D8F29
:1001C0001EE51E64947004E51D6401601AE4F50CDC
:1001D000F50D1206FC7F147E0012086B150FAD0F93
:1001E0007F3112090D8006751B00751C01D3E50FC8
:1001F00094007480948040030200A4751B00751C59
:10020000010200A4E4FEEF24CF603914605F147093
:1002100003020296240360030202BD7E007401A85B
:1002200005088005C333CE33CED8F9FFAC80ECFB94
:10023000E4FEEF5BA805088006CEA2E713CE13D834
:10024000F8FE80797E007401A805088005C333CECE
:1002500033CED8F9FFAC90ECFBE4FEEF5BA80508C9
:100260008006CEA2E713CE13D8F8FE80507E00742D
:1002700001A805088005C333CE33CED8F9FFACA062
:10028000ECFBE4FEEF5BA805088006CEA2E713CEE8
:1002900013D8F8FE80277E007401A805088005C3E6
:1002A00033CE33CED8F9FFACB0ECFBE4FEEF5BA865
:1002B00005088006CEA2E713CE13D8F8FEAF0622BB
:1002C000EF24CF602E14604C14606A240360030294
:1002D0000357EB6401700DA80504088002C333D8EE
:1002E000FC428022A8057401088002C333D8FCF4C4
:1002F000528022EB6401700DA80504088002C3330C
:10030000D8FC429022A8057401088002C333D8FCAF
:10031000F4529022EB6401700DA80504088002C31A
:1003200033D8FC42A022A8057401088002C333D848
:10033000FCF452A022EB6401700DA80504088002B1
:10034000C333D8FC42B022AF05A80774010880026D
:10035000C333D8FCF452B022EF24CF602D14604A8E
:10036000146067240360030203EBBB300FA805741D
:1003700001088002C333D8FCF4528022A80574011E
:10038000088002C333D8FC428022BB300FA805741A
:1003900001088002C333D8FCF4529022A8057401EE
:1003A000088002C333D8FC429022BB300FA80574EA
:1003B00001088002C333D8FCF452A022A8057401BE
:1003C000088002C333D8FC42A022BB300FA80574BA
:1003D00001088002C333D8FCF452B022AF05A8074D
:1003E0007401088002C333D8FC42B022787FE4F65F
:1003F000D8FD75814D020433020016E493A3F8E49E
:1004000093A34003F68001F208DFF48029E493A36C
:10041000F85407240CC8C333C4540F4420C8834085
:1004200004F456800146F6DFE4800B010204081054
:10043000204080900607E47E019360BCA3FF543FF8
:1004400030E509541FFEE493A360010ECF54C0258C
:10045000E060A840B8E493A3FAE493A3F8E493A37C
:10046000C8C582C8CAC583CAF0A3C8C582C8CAC5E0
:1004700083CADFE9DEE780BEC0E0C0F0C083C0828F
:10048000C0D075D000C000C001C002C003C004C00D
:1004900005C006C007C3E51094047480948050041E
:1004A00005108027750E00C3E50E94647480948057
:1004B00050127D077F331209077F0A7E0012086BF6
:1004C000050E80E37D077F331208FED007D006D0EB
:1004D00005D004D003D002D001D000D0D0D082D03B
:1004E00083D0F0D0E0328B498A4A894B8C2A8D2BFD
:1004F000C3E52B9405E52A648094805052AF2BAE5F
:100500002A1208EAE52B25E0242EF8E6FC08E66F1F
:100510007002EE6C60028028AF2BAE2A12068EAC01
:1005200006AD07E52B25E0FFE52A33AB49AA4AA92A
:100530004B8F82F5831207346D7003EC65F0600514
:10054000AE2AAF2B22052BE52B70A5052A80A17EB4
:10055000017F94228B498A4A894B8C2A8D2BC3E5D3
:100560002A648094804052AF2BAE2A1208EAE52B11
:1005700025E0242EF8E6FC08E66F7002EE6C6002BF
:100580008028AF2BAE2A12068EAC06AD07E52B25D0
:10059000E0FFE52A33AB49AA4AA94B8F82F58312C3
:1005A00007346D7003EC65F06005AE2AAF2B22E5D1
:1005B0002B152B70A9152A80A57E017F9422EF248C
:1005C000CF601814602314602E24037039A80574BA
:1005D00001088002C333D8FC628022A80574010898
:1005E0008002C333D8FC629022A8057401088002FF
:1005F000C333D8FC62A022AF05A8077401088002AB
:10060000C333D8FC62B022011000012901010F00A0
:100610000A1F000100010001000100010A11000190
:1006200000010001000100010A2E0001000100018B
:1006300000010001021B0001020C00000A3F000142
:10064000080940414849E8E900C0E0C0F0C083C063
:1006500082C0D075D000C000C001C002C003C00479
:10066000C005C006C007E50D450C600312080AD09E
:1006700007D006D005D004D003D002D001D000D0DE
:10068000D0D082D083D0F0D0E032AF0F7E008E4C3D
:100690008F4DE51C451B700AE54D454C6004EF1479
:1006A0008012E51C451B6017E54D6404454C600F46
:1006B000E54D2404FD7F32120010753A008F3BAEE9
:1006C0003AAF3B227D037F311207D37F647E001255
:1006D000086B7D067F311207D37F647E0012086BA2
:1006E0007D0C7F311207D37F647E0012086B7D0979
:1006F0007F311207D37F647E0002086B7D0C7F314F
:100700001207D37F647E0012086B7D067F311207CB
:10071000D37F647E0012086B7D037F311207D37F85
:10072000647E0012086B7D097F311207D37F647EDF
:100730000002086BBB0110E58229F582E5833AF5DA
:1007400083E0F5F0A3E0225009E92582F886F0085D
:10075000E622BBFE0AE92582F8E2F5F008E222E58E
:10076000832AF583E993F5F0A3E99322EF24CF6080
:100770001414601B14602224037027ED7003F580AD
:10078000227580FF22ED7003F590227590FF22ED17
:100790007003F5A02275A0FF22ED7003F5B022755D
:1007A000B0FF22EDC454F0FDEF24CF6011146015AA
:1007B0001460192403701B53800FED428022539064
:1007C0000FED42902253A00FED42A02253B00FED47
:1007D00042B022EF24CF6011146015146019240375
:1007E000701B5380F0ED4280225390F0ED42902236
:1007F00053A0F0ED42A02253B0F0ED42B022E52B21
:1008000025E0242EF8A60608A6077D077F331208E8
:10081000F97529017FE87E0312086B7D077F33128B
:1008200008FEE4F52922E4FBFD7F31120358E4FBC6
:100830007D017F31120358E4FB7D027F31120358A2
:10084000E4FB7D037F31020358E4FEEF24CF600E0A
:1008500014600F1460102403700EAE80800AAE90F6
:100860008006AEA08002AEB0AF0622E4FDFCC3ED70
:100870009FEC9E5015E4FBFA0BBB00010AEB647180
:100880004A70F50DBD00010C80E4228F498D4A7538
:100890004A04D3E54A940774809480500DE4FBAD7C
:1008A0004AAF49120358054A80E822EF24CF600D71
:1008B00014600D14600D2403700B8D80228D902226
:1008C0008DA0228DB022EFFD7C00700743A801436C
:1008D000880122ED64014C700643A8044388042279
:1008E000F8A60608A607AF0F7E00AD077F301200FE
:1008F000107538008F39AE38227B010202C0E4FB4C
:100900000202C043A880220205BE0202040207A31D
:00000001FF
