:1000000002043E020739EF4E6004E4FEFF227E0048
:100010007F01220204CA1208DC1209C3E4FF12099C
:10002000777F011209777D077F331209AF7D077F44
:10003000331209B97D017F331209AF7D017F33127D
:1000400009B97D027F331209AA7D037F331209AA01
:10005000E4FD7F301209AA7D017F301209AA7D02DA
:100060007F301209AA7D037F301209AA7D047F30F8
:100070001209AAE4FD7F321209AA7D017F3212091A
:10008000AA7D027F321209AA7D037F321209AA7D5E
:10009000047F321209AA7D057F321209AA7D067FEC
:1000A000321209AA7D077F321209AA7D047F31121C
:1000B0000610AD0F7F311209BEE51C451B7003020F
:1000C000017CAF0F7E00120664E50F25E0241FF8C7
:1000D000E6FC08E6B50719EEB50415120997E52BFD
:1000E00025E0242EF8E6FC08E66F7002EE6C60193D
:1000F000750C00750D01AF0F7E00120664E50F252B
:10010000E0241F1209911208B47B007A00791FE5E0
:100110000FFD7C001205388E1D8F1EAF0F7E00C3B1
:10012000EF940474809480503AE51E64947004E562
:100130001D64016023EF651E7002E51D601AE4F581
:100140000CF50D12077A7F147E00120921050FAD00
:100150001E7F311209BE800B750C00750D01E4F590
:100160001BF51CE51EB4940AE51DB40105E4F51B5E
:10017000F51CE50F64047004F51BF51CE51C451B1C
:1001800060030200B2AF0FFE120664E50F25E02403
:1001900011F8E6FC08E6B50719EEB5041512099743
:1001A000E52B25E0242EF8E6FC08E66F7002EE6CE5
:1001B0006028750C00750D017F147E00120921E581
:1001C0000F25E02411F8E6FE08E6FF120006E50F11
:1001D00025E024111209911208B4C3748094804060
:1001E0004E7B007A007911E50FFD7C001205A68E8A
:1001F0001D8F1EE51E64947004E51D64016024E5F6
:100200000F651E7002E51D601AE4F50CF50D12076E
:10021000B27F147E00120921150FAD0F7F31120934
:10022000BE800C750C00750D01751B00751C01E579
:100230001EB4940BE51DB40106751B00751C01D39B
:10024000E50F94007480948040030200B2751B0097
:10025000751C010200B2E4FEEF24CF603914605F28
:100260001470030202E82403600302030F7E00748B
:1002700001A805088005C333CE33CED8F9FFAC8082
:10028000ECFBE4FEEF5BA805088006CEA2E713CEE8
:1002900013D8F8FE80797E007401A805088005C394
:1002A00033CE33CED8F9FFAC90ECFBE4FEEF5BA885
:1002B00005088006CEA2E713CE13D8F8FE80507E44
:1002C000007401A805088005C333CE33CED8F9FFEA
:1002D000ACA0ECFBE4FEEF5BA805088006CEA2E72D
:1002E00013CE13D8F8FE80277E007401A80508807D
:1002F00005C333CE33CED8F9FFACB0ECFBE4FEEF50
:100300005BA805088006CEA2E713CE13D8F8FEAF8F
:100310000622EF24CF602E14604C14606A24036020
:10032000030203A9EB6401700DA80504088002C351
:1003300033D8FC428022A8057401088002C333D858
:10034000FCF4528022EB6401700DA80504088002C1
:10035000C333D8FC429022A8057401088002C3333D
:10036000D8FCF4529022EB6401700DA805040880BB
:1003700002C333D8FC42A022A8057401088002C33E
:1003800033D8FCF452A022EB6401700DA8050408D8
:100390008002C333D8FC42B022AF05A8077401081D
:1003A0008002C333D8FCF452B022EF24CF602D1466
:1003B000604A1460672403600302043DBB300FA849
:1003C000057401088002C333D8FCF4528022A805CA
:1003D0007401088002C333D8FC428022BB300FA8CE
:1003E000057401088002C333D8FCF4529022A8059A
:1003F0007401088002C333D8FC429022BB300FA89E
:10040000057401088002C333D8FCF452A022A80569
:100410007401088002C333D8FC42A022BB300FA86D
:10042000057401088002C333D8FCF452B022AF0532
:10043000A8077401088002C333D8FC42B022787F39
:10044000E4F6D8FD75814D020485020016E493A3FD
:10045000F8E493A34003F68001F208DFF48029E476
:1004600093A3F85407240CC8C333C4540F4420C8C2
:10047000834004F456800146F6DFE4800B01020459
:1004800008102040809006F7E47E019360BCA3FF33
:10049000543F30E509541FFEE493A360010ECF548E
:1004A000C025E060A840B8E493A3FAE493A3F8E47D
:1004B00093A3C8C582C8CAC583CAF0A3C8C582C8E9
:1004C000CAC583CADFE9DEE780BEC0E0C0F0C083F2
:1004D000C082C0D075D000C000C001C002C003C03F
:1004E00004C005C006C007C3E5109404748094805E
:1004F000500405108027750E00C3E50E94647480C7
:10050000948050127D077F331209CA7F0A7E001241
:100510000921050E80E37D077F331209B9D007D08A
:1005200006D005D004D003D002D001D000D0D0D066
:1005300082D083D0F0D0E0328B498A4A894B8C2A12
:100540008D2BC3E52B9405E52A648094805052AF2F
:100550002BAE2A12099BE52B25E0242EF8E6FC0899
:10056000E66F7002EE6C60028028AF2BAE2A120696
:1005700064AC06AD07E52B25E0FFE52A33AB49AABD
:100580004AA94B8F82F5831207EA6D7003EC65F080
:100590006005AE2AAF2B22052BE52B70A5052A801E
:1005A000A17E017F94228B498A4A894B8C2A8D2B0C
:1005B000C3E52A648094804052AF2BAE2A12099B77
:1005C000E52B25E0242EF8E6FC08E66F7002EE6CC1
:1005D00060028028AF2BAE2A120664AC06AD07E598
:1005E0002B25E0FFE52A33AB49AA4AA94B8F82F5B8
:1005F000831207EA6D7003EC65F06005AE2AAF2B3D
:1006000022E52B152B70A9152A80A57E017F942247
:100610008F49E4F54AF54BED24CF6025047044E49E
:10062000F54AF54BAD4BE4FBAF491203AA054BE588
:100630004B7002054AD39403E54A6480948040E4F9
:1006400022754A00754B04AD4BE4FBAF491203AA77
:10065000054BE54B7002054AD39407E54A64809444
:100660008040E4228E4C8F4DE51C451B700AE54D01
:10067000454C6004EF148012E51C451B6015E54DE8
:100680006404454C600DE54D2404FD7F321209C71A
:100690007E0022E51C451B7008E54D25E0241180F5
:1006A00006E54D25E0241FF8E6FE08E6FF22EF24CC
:1006B000CF601814602314602E24037039A80574C9
:1006C00001088002C333D8FC628022A805740108A7
:1006D0008002C333D8FC629022A80574010880020E
:1006E000C333D8FC62A022AF05A8077401088002BA
:1006F000C333D8FC62B022011000012901010F00B0
:100700000A1F000100010001000100010A1100019F
:1007100000010001000100010A2E0001000100019A
:1007200000010001021B0001020C00010A3F000150
:10073000080940414849E8E900C0E0C0F0C083C072
:1007400082C0D075D000C000C001C002C003C00488
:10075000C005C006C007E50D450C60031208C0D0F7
:1007600007D006D005D004D003D002D001D000D0ED
:10077000D0D082D083D0F0D0E0327D037F31120818
:10078000897F647E001209217D067F311208897FEE
:10079000647E001209217D0C7F311208897F647EFE
:1007A000001209217D097F311208897F647E0002D1
:1007B00009217D0C7F311208897F647E0012092196
:1007C0007D067F311208897F647E001209217D0336
:1007D0007F311208897F647E001209217D097F31F3
:1007E0001208897F647E00020921BB0110E582297D
:1007F000F582E5833AF583E0F5F0A3E0225009E9BC
:100800002582F886F008E622BBFE0AE92582F8E296
:10081000F5F008E222E5832AF583E993F5F0A3E9F0
:100820009322EF24CF601414601B14602224037001
:1008300027ED7003F580227580FF22ED7003F5909F
:10084000227590FF22ED7003F5A02275A0FF22ED26
:100850007003F5B02275B0FF22EDC454F0FDEF2413
:10086000CF60111460151460192403701B53800F9E
:10087000ED42802253900FED42902253A00FED42A3
:10088000A02253B00FED42B022EF24CF60111460CC
:10089000151460192403701B5380F0ED428022531D
:1008A00090F0ED42902253A0F0ED42A02253B0F020
:1008B000ED42B022E52B25E0242EF8A60608A60777
:1008C0007D017F331209B47529017FE87E03120987
:1008D000217D017F331209B9E4F52922E4FBFD7F74
:1008E000311203AAE4FB7D017F311203AAE4FB7DF0
:1008F000027F311203AAE4FB7D037F310203AAE4E5
:10090000FEEF24CF600E14600F1460102403700EED
:10091000AE80800AAE908006AEA08002AEB0AF0678
:1009200022E4FDFCC3ED9FEC9E5015E4FBFA0BBBEB
:1009300000010AEB64714A70F50DBD00010C80E402
:1009400022EF24CF600D14600D14600D2403700B92
:100950008D80228D90228DA0228DB022AE05AC0715
:10096000EB24CF600A04700EAF04AD06020889AF15
:1009700004AD0612085922EFFD7C00700743A80160
:1009800043880122ED64014C700643A804438804A7
:1009900022F8A60608A607AF0F7E00AD077F30122B
:1009A00009C77538008F39AE38227B310203AAE4BB
:1009B000FB0203AA7B01020312E4FB0203127B3158
:1009C00002095C43A880220202560206AE020256C9
:00000001FF
