:10000000020BC70201ECE4FB0200167B01020016A2
:10001000020800020232EF24CF60321460541460F0
:1000200076240360030200BBEB6401700DA8050495
:10003000088002C333D8FC42A422A80574010880BA
:1000400002C333D8FCFFF452A4EF428022EB6401D8
:10005000700DA80504088002C333D8FC42A522A86D
:10006000057401088002C333D8FCFFF452A5EF42A7
:100070009022EB6401700DA80504088002C333D8F8
:10008000FC42A622A8057401088002C333D8FCFFF5
:10009000F452A6EF42A022EB6401700DA8050408FB
:1000A0008002C333D8FC42A722A80574010880024D
:1000B000C333D8FCFFF452A7EF42B022EF24CF6045
:1000C0002E14604C14606A24036003020153EB6435
:1000D00001700DA80504088002C333D8FC428022B9
:1000E000A8057401088002C333D8FCF4528022EBC7
:1000F0006401700DA80504088002C333D8FC429047
:1001000022A8057401088002C333D8FCF45290225F
:10011000EB6401700DA80504088002C333D8FC42CB
:10012000A022A8057401088002C333D8FCF452A0B1
:1001300022EB6401700DA80504088002C333D8FCCB
:1001400042B022AF05A8077401088002C333D8FC6F
:10015000F452B022EF24CF601A14602714603424C4
:1001600003703FED6401700475A4FF22E4F5A475EB
:1001700080FF22ED6401700475A5FF22E4F5A575EA
:1001800090FF22ED6401700475A6FF22E4F5A675C8
:10019000A0FF22ED6401700475A7FF22E4F5A775A6
:1001A000B0FF22EF24CF601814602314602E2403C4
:1001B0007039A8057401088002C333D8FC6280221C
:1001C000A8057401088002C333D8FC629022A805F8
:1001D0007401088002C333D8FC62A022AF05A807CF
:1001E0007401088002C333D8FC62B022C0E0C0F0C2
:1001F000C083C082C0D075D000C000C001C002C0A2
:1002000003C004C005C006C007E4FD7F311203210E
:100210007FE87E031202CCD007D006D005D004D0F0
:1002200003D002D001D000D0D0D082D083D0F0D083
:10023000E032C0E0C0F0C083C082C0D075D000C042
:1002400000C001C002C003C004C005C006C007E46E
:10025000FD7F311203217FB87E0B1202CCD007D074
:1002600006D005D004D003D002D001D000D0D0D029
:1002700082D083D0F0D0E03212032BE4FF120307C8
:100280007F01120307E4FD7F3112000B7D027F33F3
:100290001200067D037F33120006E4FD7F31120356
:1002A000267F327E001202CC80F0E4FEEF24CF6085
:1002B0000E14600F1460102403700EAE80800AAE1E
:1002C000908006AEA08002AEB0AF0622E4FDFCC373
:1002D000ED9FEC9E5015E4FBFA0BBB00010AEB64AA
:1002E000714A70F50DBD00010C80E422EF24CF604F
:1002F0000D14600D14600D2403700B8D80228D9001
:10030000228DA0228DB022EFFD7C00700743A80152
:1003100043880122ED64014C700643A8044388041D
:10032000227B010200BCE4FB0200BC43A880220245
:0503300001A30208001A
:10080000E4FEEF24CF603914605F14700302089295
:10081000240360030208B97E007401A8050880055E
:10082000C333CE33CED8F9FFAC80ECFBE4FEEF5BF4
:10083000A805088006CEA2E713CE13D8F8FE80796B
:100840007E007401A805088005C333CE33CED8F9E5
:10085000FFAC90ECFBE4FEEF5BA805088006CEA29F
:10086000E713CE13D8F8FE80507E007401A8050867
:100870008005C333CE33CED8F9FFACA0ECFBE4FE49
:10088000EF5BA805088006CEA2E713CE13D8F8FECA
:1008900080277E007401A805088005C333CE33CEBF
:1008A000D8F9FFACB0ECFBE4FEEF5BA805088006CE
:0C08B000CEA2E713CE13D8F8FEAF06224C
:0C0BC700787FE4F6D8FD75810702027803
:00000001FF
