:100000000204280206E97B31020394E4FB02039414
:1000100002024002059C1208C61209A3E4FF12095D
:10002000617F011209617D077F3312000B7D077F1D
:10003000331209997D017F3312000B7D017F33124A
:1000400009997D027F331200067D037F331200067B
:10005000E4FD7F301200067D017F301200067D0234
:100060007F301200067D037F301200067D047F3052
:10007000120006E4FD7F321200067D017F3212007D
:10008000067D027F321200067D037F321200067D5C
:10009000047F321200067D057F321200067D067F46
:1000A000321200067D077F321200067D047F311276
:1000B000060AAD0F7F3112099EE51C451B70030235
:1000C000017212072AE50F25E0241FF8E6FC08E676
:1000D000B50719EEB50415120981E52B25E0242E8C
:1000E000F8E6FC08E66F7002EE6C6015750C0075A2
:1000F0000D0112072AE50F25E0241F12097B1208C3
:100100009ED3E50F940474809480504D7B007A0058
:10011000791FE50FFD7C001204B48E1D8F1EE51EB5
:1001200064947004E51D64016024E50F651E70028F
:10013000E51D601AE4F50CF50D1207647F147E00CE
:1001400012090B050FAD1E7F3112099E800B750C35
:1001500000750D01E4F51BF51CE51EB4940AE51DC0
:10016000B40105E4F51BF51CE50F64047004F51BF0
:10017000F51CE51C451B60030200B2AF0FFE120721
:100180002EE50F25E02411F8E6FC08E6B50719EE88
:10019000B50415120981E52B25E0242EF8E6FC08AC
:1001A000E66F7002EE6C601C750C00750D017F141B
:1001B0007E0012090B12072AE50F25E0241112090F
:1001C0007B12089EC374809480404E7B007A007935
:1001D00011E50FFD7C0012052A8E1D8F1EE51E64A1
:1001E000947004E51D64016024E50F651E7002E54E
:1001F0001D601AE4F50CF50D12079C7F147E0012A9
:10020000090B150FAD0F7F3112099E800C750C0084
:10021000750D01751B00751C01E51EB4940BE51DE1
:10022000B40106751B00751C01D3E50F94007480A2
:10023000948040030200B2751B00751C010200B2DD
:10024000E4FEEF24CF603914605F1470030202D221
:10025000240360030202F97E007401A805088005EA
:10026000C333CE33CED8F9FFAC80ECFBE4FEEF5BBA
:10027000A805088006CEA2E713CE13D8F8FE807931
:100280007E007401A805088005C333CE33CED8F9AB
:10029000FFAC90ECFBE4FEEF5BA805088006CEA265
:1002A000E713CE13D8F8FE80507E007401A805082D
:1002B0008005C333CE33CED8F9FFACA0ECFBE4FE0F
:1002C000EF5BA805088006CEA2E713CE13D8F8FE90
:1002D00080277E007401A805088005C333CE33CE85
:1002E000D8F9FFACB0ECFBE4FEEF5BA80508800694
:1002F000CEA2E713CE13D8F8FEAF0622EF24CF60CC
:100300002E14604C14606A24036003020393EB64B0
:1003100001700DA80504088002C333D8FC42802276
:10032000A8057401088002C333D8FCF4528022EB84
:100330006401700DA80504088002C333D8FC429004
:1003400022A8057401088002C333D8FCF45290221D
:10035000EB6401700DA80504088002C333D8FC4289
:10036000A022A8057401088002C333D8FCF452A06F
:1003700022EB6401700DA80504088002C333D8FC89
:1003800042B022AF05A8077401088002C333D8FC2D
:10039000F452B022EF24CF602D14604A1460672419
:1003A000036003020427BB300FA805740108800214
:1003B000C333D8FCF4528022A8057401088002C31C
:1003C00033D8FC428022BB300FA80574010880029C
:1003D000C333D8FCF4529022A8057401088002C3EC
:1003E00033D8FC429022BB300FA80574010880026C
:1003F000C333D8FCF452A022A8057401088002C3BC
:1004000033D8FC42A022BB300FA80574010880023B
:10041000C333D8FCF452B022AF05A807740108809A
:1004200002C333D8FC42B022787FE4F6D8FD758150
:100430004D02046F020016E493A3F8E493A3400373
:10044000F68001F208DFF48029E493A3F85407242E
:100450000CC8C333C4540F4420C8834004F45680EE
:100460000146F6DFE4800B01020408102040809072
:1004700006A7E47E019360BCA3FF543F30E5095416
:100480001FFEE493A360010ECF54C025E060A84096
:10049000B8E493A3FAE493A3F8E493A3C8C582C88D
:1004A000CAC583CAF0A3C8C582C8CAC583CADFE962
:1004B000DEE780BE8B498A4A894B8C2A8D2BC3E5A7
:1004C0002B9405E52A64809480505AAF2BAE2A12F3
:1004D0000985E52B25E0242EF8E6FC08E66F70027E
:1004E000EE6C6005AE2AAF2B22AF2BAE2A12072E80
:1004F000AC06AD07E52B25E0FFE52A33AB49AA4A58
:10050000A94B8F82F5831207D46D7003EC65F06000
:100510000AE52B2401FFE4352AFE22052BE52B708A
:100520009D052A80997E017F94228B498A4A894BB6
:100530008C2A8D2BC3E52A64809480405AAF2BAE61
:100540002A120985E52B25E0242EF8E6FC08E66F43
:100550007002EE6C6005AE2AAF2B22AF2BAE2A12D2
:10056000072EAC06AD07E52B25E0FFE52A33AB49A6
:10057000AA4AA94B8F82F5831207D46D7003EC65EC
:10058000F0600AE52B2401FFE4352AFE22E52B1555
:100590002B70A1152A809D7E017F9422C0E0C0F0BF
:1005A000C083C082C0D075D000C000C001C002C0EE
:1005B00003C004C005C006C007C3E51094047480DE
:1005C0009480500405108027750E00C3E50E9464D6
:1005D0007480948050127D077F331209A77F0A7EB2
:1005E0000012090B050E80E37D077F33120999D0B5
:1005F00007D006D005D004D003D002D001D000D05F
:10060000D0D082D083D0F0D0E0328F49E4F54AF5E3
:100610004BED24CF6025047044E4F54AF54BAD4B17
:10062000E4FBAF49120394054BE54B7002054AD336
:100630009403E54A6480948040E422754A00754B37
:1006400004AD4BE4FBAF49120394054BE54B70023C
:10065000054AD39407E54A6480948040E422EF245D
:10066000CF601814602314602E24037039A8057419
:1006700001088002C333D8FC628022A805740108F7
:100680008002C333D8FC629022A80574010880025E
:10069000C333D8FC62A022AF05A80774010880020A
:1006A000C333D8FC62B022011000012901010F0000
:1006B0000A1F000100010001000100010A110001F0
:1006C00000010001000100010A2E000100010001EB
:1006D00000010001021B0001020C00010A3F0001A1
:1006E000080940414849E8E900C0E0C0F0C083C0C3
:1006F00082C0D075D000C000C001C002C003C004D9
:10070000C005C006C007E50D450C60031208AAD05D
:1007100007D006D005D004D003D002D001D000D03D
:10072000D0D082D083D0F0D0E032AF0F7E008E4C9C
:100730008F4DE51C451B700AE54D454C6004EF14D8
:100740008012E51C451B6017E54D6404454C600FA5
:10075000E54D2404FD7F32120010753A008F3BAE48
:100760003AAF3B227D037F311208737F647E001213
:10077000090B7D067F311208737F647E0012090B1E
:100780007D0C7F311208737F647E0012090B7D0996
:100790007F311208737F647E0002090B7D0C7F316C
:1007A0001208737F647E0012090B7D067F311208E8
:1007B000737F647E0012090B7D037F311208737F03
:1007C000647E0012090B7D097F311208737F647EFD
:1007D0000002090BBB0110E58229F582E5833AF599
:1007E00083E0F5F0A3E0225009E92582F886F008BD
:1007F000E622BBFE0AE92582F8E2F5F008E222E5EE
:10080000832AF583E993F5F0A3E99322EF24CF60DF
:100810001414601B14602224037027ED7003F5800C
:10082000227580FF22ED7003F590227590FF22ED76
:100830007003F5A02275A0FF22ED7003F5B02275BC
:10084000B0FF22EDC454F0FDEF24CF601114601509
:100850001460192403701B53800FED4280225390C3
:100860000FED42902253A00FED42A02253B00FEDA6
:1008700042B022EF24CF60111460151460192403D4
:10088000701B5380F0ED4280225390F0ED42902295
:1008900053A0F0ED42A02253B0F0ED42B022E52B80
:1008A00025E0242EF8A60608A6077D017F3312094D
:1008B000947529017FE87E0312090B7D017F3312B5
:1008C0000999E4F52922E4FBFD7F31120394E4FB4E
:1008D0007D017F31120394E4FB7D027F311203948A
:1008E000E4FB7D037F31020394E4FEEF24CF600E2E
:1008F00014600F1460102403700EAE80800AAE9056
:100900008006AEA08002AEB0AF0622E4FDFCC3EDCF
:100910009FEC9E5015E4FBFA0BBB00010AEB6471DF
:100920004A70F50DBD00010C80E422EF24CF600D6C
:1009300014600D14600D2403700B8D80228D9022A5
:100940008DA0228DB022AE05AC07EB24CF600A0447
:10095000700EAF04AD06020873AF04AD0612084373
:1009600022EFFD7C00700743A80143880122ED645B
:10097000014C700643A80443880422F8A60608A682
:1009800007AF0F7E00AD077F301200107538008F63
:1009900039AE38227B010202FCE4FB0202FC7B310F
:0D09A00002094643A8802202065E020240C2
:00000001FF
