:100000000204000206B17B3102036CE4FB02036CC4
:1000100002021802048C12088E12096BE4FF120906
:10002000297F011209297D077F3312000B7D077F8D
:10003000331209617D027F331200067D037F331284
:100040000006E4FD7F301200067D017F30120006BD
:100050007D027F301200067D037F301200067D0492
:100060007F30120006E4FD7F321200067D017F32F0
:100070001200067D027F321200067D037F321200DD
:10008000067D047F321200067D057F321200067D58
:10009000067F321200067D077F321200067D047F44
:1000A000311205D2AD0F7F31120966E51C451B7078
:1000B000030201591206F2E50F25E0241FF8E6FCC1
:1000C00008E6B50719EEB50415120949E52B25E038
:1000D000242EF8E6FC08E66F7002EE6C601F750CCB
:1000E00000750D011207647F147E001208D31206FA
:1000F000F2E50F25E0241F120943120866C3E50F3D
:1001000094047480948050477B007A00791FE50F37
:10011000FD7C001204FA8E1D8F1EE51E649470048F
:10012000E51D64016024E50F651E7002E51D601A7F
:10013000E4F50CF50D12072C7F147E001208D30590
:100140000FAD1E7F311209668005E4F51BF51CE535
:100150000F64047004F51BF51CE51C451B600302CD
:1001600000A4AF0FFE1206F6E50F25E02411F8E615
:10017000FC08E6B50719EEB50415120949E52B256B
:10018000E0242EF8E6FC08E66F7002EE6C601F7546
:100190000C00750D011207647F147E001208D31243
:1001A00006F2E50F25E02411120943120866D3E593
:1001B0000F94007480948040487B007A007911E5A8
:1001C0000FFD7C001205688E1D8F1EE51E64947065
:1001D00004E51D64016024E50F651E7002E51D60E5
:1001E0001AE4F50CF50D1207647F147E001208D393
:1001F000150FAD0F7F311209668006751B00751C47
:1002000001D3E50F94007480948040030200A4752C
:100210001B00751C010200A4E4FEEF24CF6039141A
:10022000605F1470030202AA240360030202D17EFD
:10023000007401A805088005C333CE33CED8F9FF7A
:10024000AC80ECFBE4FEEF5BA805088006CEA2E7DD
:1002500013CE13D8F8FE80797E007401A8050880BB
:1002600005C333CE33CED8F9FFAC90ECFBE4FEEF00
:100270005BA805088006CEA2E713CE13D8F8FE804F
:10028000507E007401A805088005C333CE33CED854
:10029000F9FFACA0ECFBE4FEEF5BA805088006CEFE
:1002A000A2E713CE13D8F8FE80277E007401A805BC
:1002B000088005C333CE33CED8F9FFACB0ECFBE4F5
:1002C000FEEF5BA805088006CEA2E713CE13D8F890
:1002D000FEAF0622EF24CF602E14604C14606A2417
:1002E00003600302036BEB6401700DA80504088032
:1002F00002C333D8FC428022A8057401088002C3DF
:1003000033D8FCF4528022EB6401700DA805040878
:100310008002C333D8FC429022A8057401088002F1
:10032000C333D8FCF4529022EB6401700DA805048D
:10033000088002C333D8FC42A022A80574010880BB
:1003400002C333D8FCF452A022EB6401700DA8055F
:1003500004088002C333D8FC42B022AF05A807745A
:1003600001088002C333D8FCF452B022EF24CF60DE
:100370002D14604A146067240360030203FFBB303E
:100380000FA8057401088002C333D8FCF452802200
:10039000A8057401088002C333D8FC428022BB3018
:1003A0000FA8057401088002C333D8FCF4529022D0
:1003B000A8057401088002C333D8FC429022BB30E8
:1003C0000FA8057401088002C333D8FCF452A022A0
:1003D000A8057401088002C333D8FC42A022BB30B8
:1003E0000FA8057401088002C333D8FCF452B02270
:1003F000AF05A8077401088002C333D8FC42B022BD
:10040000787FE4F6D8FD75814D020447020016E4BA
:1004100093A3F8E493A34003F68001F208DFF4808D
:1004200029E493A3F85407240CC8C333C4540F44DD
:1004300020C8834004F456800146F6DFE4800B01B7
:100440000204081020408090066FE47E019360BC97
:10045000A3FF543F30E509541FFEE493A360010E4F
:10046000CF54C025E060A840B8E493A3FAE493A376
:10047000F8E493A3C8C582C8CAC583CAF0A3C8C597
:1004800082C8CAC583CADFE9DEE780BEC0E0C0F02B
:10049000C083C082C0D075D000C000C001C002C0FF
:1004A00003C004C005C006C007C3E51094047480EF
:1004B0009480500405108027750E00C3E50E9464E7
:1004C0007480948050127D077F3312096F7F0A7EFB
:1004D000001208D3050E80E37D077F33120961D037
:1004E00007D006D005D004D003D002D001D000D070
:1004F000D0D082D083D0F0D0E0328B498A4A894B69
:100500008C2A8D2BC3E52B9405E52A6480948050BA
:1005100052AF2BAE2A12094DE52B25E0242EF8E62A
:10052000FC08E66F7002EE6C60028028AF2BAE2AEA
:100530001206F6AC06AD07E52B25E0FFE52A33AB46
:1005400049AA4AA94B8F82F58312079C6D7003EC70
:1005500065F06005AE2AAF2B22052BE52B70A505B3
:100560002A80A17E017F94228B498A4A894B8C2A5A
:100570008D2BC3E52A648094804052AF2BAE2A12A3
:10058000094DE52B25E0242EF8E6FC08E66F700205
:10059000EE6C60028028AF2BAE2A1206F6AC06ADD8
:1005A00007E52B25E0FFE52A33AB49AA4AA94B8F83
:1005B00082F58312079C6D7003EC65F06005AE2A2E
:1005C000AF2B22E52B152B70A9152A80A57E017F64
:1005D00094228F49E4F54AF54BED24CF6025047051
:1005E00044E4F54AF54BAD4BE4FBAF4912036C050F
:1005F0004BE54B7002054AD39403E54A648094802E
:1006000040E422754A00754B04AD4BE4FBAF491240
:10061000036C054BE54B7002054AD39407E54A6429
:1006200080948040E422EF24CF601814602314608B
:100630002E24037039A8057401088002C333D8FC46
:10064000628022A8057401088002C333D8FC62903E
:1006500022A8057401088002C333D8FC62A022AF2F
:1006600005A8077401088002C333D8FC62B02201D8
:100670001000012901010F000A1F00010001000103
:10068000000100010A110001000100010001000148
:100690000A2E00010001000100010001021B0001FF
:1006A000020C00000A3F0001080940414849E8E9FE
:1006B00000C0E0C0F0C083C082C0D075D000C000D0
:1006C000C001C002C003C004C005C006C007E50DDC
:1006D000450C6003120872D007D006D005D004D0B4
:1006E00003D002D001D000D0D0D082D083D0F0D0BF
:1006F000E032AF0F7E008E4C8F4DE51C451B700A1B
:10070000E54D454C6004EF148012E51C451B601755
:10071000E54D6404454C600FE54D2404FD7F321225
:100720000010753A008F3BAE3AAF3B227D037F311C
:1007300012083B7F647E001208D37D067F311208C9
:100740003B7F647E001208D37D0C7F3112083B7F13
:10075000647E001208D37D097F3112083B7F647EDE
:10076000000208D37D0C7F3112083B7F647E0012AB
:1007700008D37D067F3112083B7F647E001208D3C8
:100780007D037F3112083B7F647E001208D37D0910
:100790007F3112083B7F647E000208D3BB0110E565
:1007A0008229F582E5833AF583E0F5F0A3E0225053
:1007B00009E92582F886F008E622BBFE0AE92582CF
:1007C000F8E2F5F008E222E5832AF583E993F5F0F3
:1007D000A3E99322EF24CF601414601B1460222439
:1007E000037027ED7003F580227580FF22ED700302
:1007F000F590227590FF22ED7003F5A02275A0FF01
:1008000022ED7003F5B02275B0FF22EDC454F0FD67
:10081000EF24CF60111460151460192403701B536A
:10082000800FED42802253900FED42902253A00F93
:10083000ED42A02253B00FED42B022EF24CF601161
:100840001460151460192403701B5380F0ED42806E
:10085000225390F0ED42902253A0F0ED42A022539B
:10086000B0F0ED42B022E52B25E0242EF8A60608D4
:10087000A6077D077F3312095C7529017FE87E0397
:100880001208D37D077F33120961E4F52922E4FBC6
:10089000FD7F3112036CE4FB7D017F3112036CE4B8
:1008A000FB7D027F3112036CE4FB7D037F31020389
:1008B0006CE4FEEF24CF600E14600F14601024036C
:1008C000700EAE80800AAE908006AEA08002AEB000
:1008D000AF0622E4FDFCC3ED9FEC9E5015E4FBFA4D
:1008E0000BBB00010AEB64714A70F50DBD00010CF1
:1008F00080E422EF24CF600D14600D14600D2403FA
:10090000700B8D80228D90228DA0228DB022AE059D
:10091000AC07EB24CF600A04700EAF04AD060208EA
:100920003BAF04AD0612080B22EFFD7C00700743BD
:10093000A80143880122ED64014C700643A80443DA
:10094000880422F8A60608A607AF0F7E00AD077F31
:10095000301200107538008F39AE38227B01020248
:10096000D4E4FB0202D47B3102090E43A8802202A8
:0509700006260202183A
:00000001FF
