:10000000020AAE0203A6010C00010D01010B000063
:100010000208000202081203E8120497E4FF120427
:10002000697F011204697D077F331204887D077F91
:10003000331204927D027F331204837D037F3312D7
:100040000483E4FD7F301204837D017F301204833A
:100050007D027F301204837D037F301204837D0490
:100060007F30120483E4FD7F301200108F0E7D017B
:100070007F301200108F0F7D027F301200108F1022
:100080007D037F301200108F087D047F3012001036
:100090008F09EF701B7F887E1312042E7D077F333C
:1000A00012048D1202C57F0A7E0012042E750B0405
:1000B000E50E70B17D077F331204921203117F0A9F
:1000C0007E0012042EE4F50B809BEF24CF603214E7
:1000D00060541460762403600302016FEB640170C6
:1000E0000DA80504088002C333D8FC42A422A80549
:1000F0007401088002C333D8FCFFF452A4EF42809D
:1001000022EB6401700DA80504088002C333D8FCFB
:1001100042A522A8057401088002C333D8FCFFF46D
:1001200052A5EF429022EB6401700DA805040880EF
:1001300002C333D8FC42A622A8057401088002C37A
:1001400033D8FCFFF452A6EF42A022EB6401700DFD
:10015000A80504088002C333D8FC42A722A805746E
:1001600001088002C333D8FCFFF452A7EF42B0224B
:10017000EF24CF602E14604C14606A2403600302E5
:100180000207EB6401700DA80504088002C333D890
:10019000FC428022A8057401088002C333D8FCF415
:1001A000528022EB6401700DA80504088002C3335D
:1001B000D8FC429022A8057401088002C333D8FC01
:1001C000F4529022EB6401700DA80504088002C36C
:1001D00033D8FC42A022A8057401088002C333D89A
:1001E000FCF452A022EB6401700DA8050408800203
:1001F000C333D8FC42B022AF05A8077401088002BF
:10020000C333D8FCF452B022C0E0C0F0C083C08237
:10021000C0D075D000C000C001C002C003C004C07F
:1002200005C006C007C3E50C940474809480500494
:10023000050C8027750A00C3E50A946474809480D5
:1002400050127D077F3312049B7F0A7E0012042E1A
:10025000050A80E37D077F33120492D007D006D0D1
:1002600005D004D003D002D001D000D0D0D082D0AD
:1002700083D0F0D0E032EF24CF601A1460271460EE
:10028000342403703FED6401700475A4FF22E4F58B
:10029000A47580FF22ED6401700475A5FF22E4F5CA
:1002A000A57590FF22ED6401700475A6FF22E4F5A8
:1002B000A675A0FF22ED6401700475A7FF22E4F586
:1002C000A775B0FF224390014390025390FB5390D7
:1002D000F77F647E0012042E4390024390045390F3
:1002E000FE5390F77F647E0012042E4390044390E7
:1002F000085390FE5390FD7F647E0012042E4390BD
:10030000014390085390FD5390FB7F647E000204EC
:100310002E4390044390085390FE5390FD7F647EDB
:100320000012042E4390024390045390FE5390F722
:100330007F647E0012042E4390014390025390FB91
:100340005390F77F647E0012042E4390014390087F
:100350005390FD5390FB7F647E0002042EEF24CF68
:10036000601814602314602E24037039A8057401EA
:10037000088002C333D8FC628022A805740108807B
:1003800002C333D8FC629022A8057401088002C31E
:1003900033D8FC62A022AF05A8077401088002C30D
:1003A00033D8FC62B022C0E0C0F0C083C082C0D0AD
:1003B00075D000C000C001C002C003C004C005C0A9
:1003C00006C007750D017F017E0012042ED007D0F4
:1003D00006D005D004D003D002D001D000D0D0D0B8
:1003E00082D083D0F0D0E0327B01E4FD7F31120077
:1003F000CA7B017D017F311200CA7B017D027F3102
:100400001200CA7B017D037F310200CAE4FEEF24A3
:10041000CF600E14600F1460102403700EAE808045
:100420000AAE908006AEA08002AEB0AF0622E4FD18
:10043000FCC3ED9FEC9E5015E4FBFA0BBB00010AD8
:10044000EB64714A70F50DBD00010C80E422EF24CD
:10045000CF600D14600D14600D2403700B8D80228D
:100460008D90228DA0228DB022EFFD7C007007437D
:10047000A80143880122ED64014C700643A804439F
:10048000880422E4FB0200CA7B010200CA7B01024D
:100490000170E4FB02017043A8802202035D0208A0
:0104A000005B
:10080000E4FEEF24CF603914605F14700302089295
:10081000240360030208B97E007401A8050880055E
:10082000C333CE33CED8F9FFAC80ECFBE4FEEF5BF4
:10083000A805088006CEA2E713CE13D8F8FE80796B
:100840007E007401A805088005C333CE33CED8F9E5
:10085000FFAC90ECFBE4FEEF5BA805088006CEA29F
:10086000E713CE13D8F8FE80507E007401A8050867
:100870008005C333CE33CED8F9FFACA0ECFBE4FE49
:10088000EF5BA805088006CEA2E713CE13D8F8FECA
:1008900080277E007401A805088005C333CE33CEBF
:1008A000D8F9FFACB0ECFBE4FEEF5BA805088006CE
:0C08B000CEA2E713CE13D8F8FEAF06224C
:100AAE00787FE4F6D8FD758110020AF5020016E48F
:100ABE0093A3F8E493A34003F68001F208DFF480D9
:100ACE0029E493A3F85407240CC8C333C4540F4429
:100ADE0020C8834004F456800146F6DFE4800B0103
:100AEE0002040810204080900006E47E019360BC52
:100AFE00A3FF543F30E509541FFEE493A360010E9B
:100B0E00CF54C025E060A840B8E493A3FAE493A3C1
:100B1E00F8E493A3C8C582C8CAC583CAF0A3C8C5E2
:0C0B2E0082C8CAC583CADFE9DEE780BECA
:00000001FF
