:100000000204A80207CAEF4E6004E4FEFF227E004D
:100010007F01220205B71209AA120A91E4FF120A0F
:10002000457F01120A457D077F33120A7D7D077FD8
:1000300033120A877D057F30120A7D7D057F3012DD
:100040000A877D027F33120A787D037F33120A7894
:10005000E4FD7F30120A787D017F30120A787D023C
:100060007F30120A787D037F30120A787D047F305A
:10007000120A78E4FD7F32120A787D017F32120A7B
:10008000787D027F32120A787D037F32120A787DF2
:10009000047F32120A787D057F32120A787D067F4E
:1000A00032120A787D077F32120A787D047F31127E
:1000B00006EBAD0F7F31120A8C12080BE51E451DB1
:1000C00070030201AD120693E50F25E02421F8E646
:1000D000FC08E6B50719EEB50415120A65E52F25EB
:1000E000E02432F8E6FC08E66F7002EE6C601575ED
:1000F0000C00750D01120693E50F25E02421120A6C
:100100005F120982AF0F7E00C3EF94047480948065
:100110004003020194E52064947004E51F640160CB
:100120001CEF65207002E51F6013E4F50CF50D125D
:1001300008487F147E001209EF050F8040E5316406
:10014000947004E53064017040E51164947004E536
:10015000106401603FAF0F7E00D3EF940074809471
:10016000804031EF65117002E5106028E4F50CF570
:100170000D1208807F147E001209EF150FAD0F7F5E
:1001800031120A8C12080B800B750C00750D01E4FE
:10019000F51DF51EE520B4940AE51FB40105E4F54C
:1001A0001DF51EE50F64047004F51DF51EE51E45E2
:1001B0001D60030200B2E50FFD7C00E4FFFE1206A5
:1001C0009CE50F25E02413F8E6FC08E6B50719EED8
:1001D000B50415120A65E52F25E02432F8E6FC087F
:1001E000E66F7002EE6C6024750C00750D017F14D3
:1001F0007E001209EFE50FFD7C00E4FFFE12069C75
:10020000E50F25E02413120A5F1209827E00C374F1
:100210008094805003020299E53164947004E530C3
:100220006401601DE50F65317002E5306013E4F58F
:100230000CF50D1208807F147E001209EF150F8057
:1002400040E52064947004E51F64017040E52D646E
:10025000947004E52C64016040AF0F7E00C3EF94FE
:1002600004748094805032EF652D7002E52C602973
:10027000E4F50CF50D1208487F147E001209EF0515
:100280000FAD0F7F31120A8C12080B800C750C0019
:10029000750D01751D00751E01E531B4940BE53037
:1002A000B40106751D00751E01D3E50F940074801E
:1002B000948040030200B2751D00751E010200B259
:1002C000E4FEEF24CF603914605F14700302035220
:1002D000240360030203797E007401A805088005E9
:1002E000C333CE33CED8F9FFAC80ECFBE4FEEF5B3A
:1002F000A805088006CEA2E713CE13D8F8FE8079B1
:100300007E007401A805088005C333CE33CED8F92A
:10031000FFAC90ECFBE4FEEF5BA805088006CEA2E4
:10032000E713CE13D8F8FE80507E007401A80508AC
:100330008005C333CE33CED8F9FFACA0ECFBE4FE8E
:10034000EF5BA805088006CEA2E713CE13D8F8FE0F
:1003500080277E007401A805088005C333CE33CE04
:10036000D8F9FFACB0ECFBE4FEEF5BA80508800613
:10037000CEA2E713CE13D8F8FEAF0622EF24CF604B
:100380002E14604C14606A24036003020413EB64AF
:1003900001700DA80504088002C333D8FC428022F6
:1003A000A8057401088002C333D8FCF4528022EB04
:1003B0006401700DA80504088002C333D8FC429084
:1003C00022A8057401088002C333D8FCF45290229D
:1003D000EB6401700DA80504088002C333D8FC4209
:1003E000A022A8057401088002C333D8FCF452A0EF
:1003F00022EB6401700DA80504088002C333D8FC09
:1004000042B022AF05A8077401088002C333D8FCAC
:10041000F452B022EF24CF602D14604A1460672498
:100420000360030204A7BB300FA805740108800213
:10043000C333D8FCF4528022A8057401088002C39B
:1004400033D8FC428022BB300FA80574010880021B
:10045000C333D8FCF4529022A8057401088002C36B
:1004600033D8FC429022BB300FA8057401088002EB
:10047000C333D8FCF452A022A8057401088002C33B
:1004800033D8FC42A022BB300FA8057401088002BB
:10049000C333D8FCF452B022AF05A807740108801A
:1004A00002C333D8FC42B022787FE4F6D8FD7581D0
:1004B000570204EF020016E493A3F8E493A3400369
:1004C000F68001F208DFF48029E493A3F8540724AE
:1004D0000CC8C333C4540F4420C8834004F456806E
:1004E0000146F6DFE4800B010204081020408090F2
:1004F0000788E47E019360BCA3FF543F30E50954B4
:100500001FFEE493A360010ECF54C025E060A84015
:10051000B8E493A3FAE493A3F8E493A3C8C582C80C
:10052000CAC583CAF0A3C8C582C8CAC583CADFE9E1
:10053000DEE780BE7B007A007921E50FFD7C007547
:1005400052007553018B4D8A4E894F8C2E8D2FC3CF
:10055000E52F9405E52E648094805056AF2FAE2E83
:10056000120A69E52F25E02432F8E6FC08E66F70F0
:1005700002EE6C6002802CAD2FAC2EAF53AE521247
:10058000069CAC06AD07E52F25E0FFE52E33AB4D0D
:10059000AA4EA94F8F82F5831208B86D7003EC65DF
:1005A000F06005AE2EAF2F22052FE52F70A1052E8E
:1005B000809D7E017F9422C0E0C0F0C083C082C0D5
:1005C000D075D000C000C001C002C003C004C00587
:1005D000C006C007C3E512940474809480500405DB
:1005E000128027750E00C3E50E94647480948050C9
:1005F000127D077F33120A987F0A7E001209EF05E9
:100600000E80E37D077F33120A87D007D006D0051E
:10061000D004D003D002D001D000D0D0D082D0837B
:10062000D0F0D0E0328B4D8A4E894F8C2E8D2FC367
:10063000E52E648094804056AF2FAE2E120A69E5F5
:100640002F25E02432F8E6FC08E66F7002EE6C60BD
:1006500002802CAD2FAC2EAF53AE5212069CAC06CE
:10066000AD07E52F25E0FFE52E33AB4DAA4EA94F90
:100670008F82F5831208B86D7003EC65F06005AEEB
:100680002EAF2F22E52F152F70A5152E80A17E01EC
:100690007F9422E50FFD7C007F017E008E548F55F4
:1006A0008C568D57E5554554700BE55745566005FA
:1006B000E557148012E55545546015E55764044527
:1006C00056600DE5572404FD7F32120A957E002204
:1006D000E55545547008E55725E024138006E55795
:1006E00025E02421F8E6FE08E6FF228F4DE4F54ED2
:1006F000F54FED24CF6025047044E4F54EF54FAD81
:100700004FE4FBAF4D120414054FE54F7002054E48
:10071000D39403E54E6480948040E422754E0075C6
:100720004F04AD4FE4FBAF4D120414054FE54F707D
:1007300002054ED39407E54E6480948040E422EF96
:1007400024CF601814602314602E24037039A80588
:100750007401088002C333D8FC628022A8057401AA
:10076000088002C333D8FC629022A8057401088077
:1007700002C333D8FC62A022AF05A8077401088029
:1007800002C333D8FC62B022011200012B01010F19
:10079000000A21000100010001000100010A13000C
:1007A0000100010001000100010A32000100010006
:1007B0000100010001021D0001020C00010A4300BA
:1007C00001080940414849E8E900C0E0C0F0C083A1
:1007D000C082C0D075D000C000C001C002C003C03C
:1007E00004C005C006C007E50D450C600312098E64
:1007F000D007D006D005D004D003D002D001D0005D
:10080000D0D0D082D083D0F0D0E0327B007A007993
:1008100013E50FFD7C00E4F552F5531206258E30EA
:100820008F311205348E1F8F201205348E108F11D8
:100830007B007A007913E50FFD7C00E4F552F55357
:100840001205458E2C8F2D227D037F311209577F93
:10085000647E001209EF7D067F311209577F647EA6
:10086000001209EF7D0C7F311209577F647E001260
:1008700009EF7D097F311209577F647E000209EF7D
:100880007D0C7F311209577F647E001209EF7D06CF
:100890007F311209577F647E001209EF7D037F319B
:1008A0001209577F647E001209EF7D097F3112091A
:1008B000577F647E000209EFBB0110E58229F582B3
:1008C000E5833AF583E0F5F0A3E0225009E92582BB
:1008D000F886F008E622BBFE0AE92582F8E2F5F088
:1008E00008E222E5832AF583E993F5F0A3E9932250
:1008F000EF24CF601414601B14602224037027EDD2
:100900007003F580227580FF22ED7003F59022754B
:1009100090FF22ED7003F5A02275A0FF22ED700379
:10092000F5B02275B0FF22EDC454F0FDEF24CF6086
:10093000111460151460192403701B53800FED42CD
:10094000802253900FED42902253A00FED42A0223F
:1009500053B00FED42B022EF24CF60111460151494
:1009600060192403701B5380F0ED4280225390F0F5
:10097000ED42902253A0F0ED42A02253B0F0ED42A0
:10098000B022E52F25E02432F8A60608A6077D054B
:100990007F30120A82752B017FE87E031209EF7DFA
:1009A000057F30120A87E4F52B22E4FBFD7F31122C
:1009B0000414E4FB7D017F31120414E4FB7D027F0B
:1009C00031120414E4FB7D037F31020414E4FEEFD2
:1009D00024CF600E14600F1460102403700EAE80DC
:1009E000800AAE908006AEA08002AEB0AF0622E4D0
:1009F000FDFCC3ED9FEC9E5015E4FBFA0BBB000120
:100A00000AEB64714A70F50DBD00010C80E422EF21
:100A100024CF600D14600D14600D2403700B8D80C5
:100A2000228D90228DA0228DB022AE05AC07EB2442
:100A3000CF600A04700EAF04AD06020957AF04ADD3
:100A40000612092722EFFD7C00700743A8014388A6
:100A50000122ED64014C700643A80443880422F887
:100A6000A60608A607AF0F7E00AD077F30120A95D5
:100A7000753C008F3DAE3C227B31020414E4FB0246
:100A800004147B0102037CE4FB02037C7B31020A39
:0E0A90002A43A880220202C002073F0202C0D1
:00000001FF
